:100000000C9440000C94B8030C94EB030C941E0465
:100010000C9451040C9484040C9468000C94DB053B
:100020000C94FF050C9423060C9481050C9439055F
:100030000C945D050C94A5050C94BA040C94DE0494
:100040000C9402050C9468000C94DB0B0C94230CAC
:100050000C94FF0B0C9485030C9468000C946800BE
:100060000C9490090C946800A903DC030F0442046B
:100070007504A8042605C9054706B609470C9F0C58
:1000800011241FBECFEFD8E0DEBFCDBF11E0A0E04E
:10009000B1E0E4EDFDE202C005900D92A032B1079F
:1000A000D9F721E0A0E2B1E001C01D92A539B20765
:1000B000E1F710E0C0E4D0E004C02197FE010E9407
:1000C000F913C433D107C9F70E94710D0C94861639
:1000D0000C940000E82FF92F1182108213821282F3
:1000E000158214828681887F868310861782128605
:1000F00011868385887F83871486158682E08687AC
:10010000108A1786128A118A0895CF93DF93E82FF9
:10011000F92F858586FB882780F920ED30E088233C
:1001200009F4DFC0958597FB882780F92EEF3FEF14
:1001300099230CF0D6C0238527709770290F332799
:10014000331F283031050CF0C9C096819770258582
:100150002695269526952770492F420F5527551F1E
:10016000483051050CF0C2C02485213009F44AC042
:10017000223009F47DC0222321F02FEF3FEF80E0F1
:10018000B0C0A081B1817C914FE050E09A0102C0E3
:10019000220F331F9A95E2F7209527232C93A281F3
:1001A000B3819C9126812770EA0102C0CC0FDD1F2C
:1001B0002A95E2F79C2B9C93A781B0859C9123857F
:1001C0002770EA0102C0CC0FDD1F2A95E2F79C2BB5
:1001D0009C93A185B2859C912385277002C0440F12
:1001E000551F2A95E2F7942B9C9391E0611101C071
:1001F00090E0990F26852170922B9160968720E0E0
:1002000030E06FC0A081B1817C914FE050E09A0155
:1002100002C0220F331F9A95E2F7209527232C93D3
:10022000A281B3819C912681277002C0440F551F83
:100230002A95E2F7942B9C93A781B0859C91238506
:10024000277047E050E0EA0102C0CC0FDD1F2A957D
:10025000E2F79C2B9C93A185B2859C912385277006
:1002600002C0440F551F2A95E2F7942B9C93BDCFF3
:10027000A081B1817C914FE150E09A0102C0220F30
:10028000331F9A95E2F7209527232C93A281B381FF
:100290009C912681277002C0440F551F2A95E2F7D2
:1002A000942B9C93A781B0859C912385277047E070
:1002B00050E0EA0102C0CC0FDD1F2A95E2F79C2B2B
:1002C0009C93A185B2859C912385277002C0440F21
:1002D000551F2A95E2F7942B9C9387CF2AEF3FEF87
:1002E00080E0328B218BDF91CF91089529EF3FEF92
:1002F00080E0F7CF0F93CF93DF93E82FF92F862F6E
:10030000972FC22FD32F118210821382128215824F
:1003100014822681287F26831086178212861186F2
:100320002385287F238725852F7B25879C012352C2
:1003300031092930310508F049C09E0123523109A5
:100340002930310508F046C09C0120523109ABEA42
:10035000BAEA0E94FF139C01369527958E7F820F83
:10036000931F9C012F5D3F4F318320832F5F3F4FB1
:100370003383228380969583848347708681887F28
:10038000482B46839E01205231090E94FF139C0195
:10039000369527958E7F820F931F9C012F5D3F4FCF
:1003A0003087278382969287818707708385887F2D
:1003B000082B038785858064858720E030E081E015
:1003C000328B218BDF91CF910F9108952BEF3FEF6F
:1003D00080E0F6CF2CEF3FEF80E0F2CF8F929F923C
:1003E000AF92BF92CF92DF92EF92FF920F931F9343
:1003F000CF93DF93CDB7DEB70F8518898989D801F0
:100400001D969C911D979F771D969C93813051F06E
:10041000823059F063E023E0882349F02DEF3FEF6D
:1004200080E069C063E022E002C064E022E0962F31
:10043000990F990F990FF8013585307C932B922BEA
:10044000958784876F5F67702F5F629FB00111246B
:10045000878590890E948915282F392FD8015096B9
:100460003C932E931F97232B09F457C0AE014E5E89
:100470005F4FE12C60E070E0C12CD12CF12C2C2DD1
:100480003D2DF8018585869586958695877090E047
:100490000196869F5001879FB00C969FB00C112447
:1004A000A785B089A20FB31FAA0DBB1DFA018081D9
:1004B0004E5F5F4F8C93F3942F2D30E0D8011D9643
:1004C0008C911D97877090E082179307D4F6E39480
:1004D0006E2D70E01D968C91869586958695877019
:1004E00090E08617970754F6F80185858068858720
:1004F00020E030E081E0D80152963C932E93519752
:10050000DF91CF911F910F91FF90EF90DF90CF90EF
:10051000BF90AF909F908F9008952BE030E080E0E7
:10052000EACF9F92AF92BF92CF92DF92EF92FF926B
:100530000F931F93CF93DF93A82FB92FC62ED72EDB
:100540001E968C911E97817024E030E0882309F478
:10055000B4C0C114D10409F4C0C0A12C99249A9448
:1005600001E010E073C0EFE9FFE03197F1F700C060
:1005700000002F5F1E969C911E979695291798F361
:100580001496ED91FC91159716964C91169747701D
:10059000980102C0220F331F6A95E2F7B90120814A
:1005A00030E0042E02C0359527950A94E2F7262301
:1005B0003723232BA1F3B3941D962C911D972695D9
:1005C0002695269527702B1538F16B2D70E0AE011E
:1005D0000B2C02C0559547950A94E2F740FDD0CF09
:1005E00030E02F5F3F4F269FA001279F500D369F81
:1005F000500D11241F96ED91FC915097EE0DFF1DAB
:10060000E40FF51F90801E969C911E979695992356
:1006100009F4B6CF20E0A7CF1996ED91FC911A9777
:1006200090811B962C911B972770E20EF11CB8014C
:1006300002C0660F771FEA94E2F7962B9083A3948B
:100640001D969C911D9797709A1598F11996ED91AA
:10065000FC911A974081EA2CF12C1B969C911B97D8
:1006600097709701290F311DB80102C0660F771FDF
:100670002A95E2F79B0120952423208300C000C027
:1006800000001496ED91FC911597C081D0E016966C
:100690009C911697977002C0D595C7959A95E2F7E9
:1006A0001D962C911D972695269526952770B12C81
:1006B0008CCFF601908220E030E052963C932E934E
:1006C0005197DF91CF911F910F91FF90EF90DF90A5
:1006D000CF90BF90AF909F90089521E130E080E0EF
:1006E000ECCFE82FF92F158280858E7F808780815F
:1006F0008C7F8B7F80838FE090E09783868313824B
:10070000148212821182089508951F920F920FB6DB
:100710000F9211242F933F934F935F936F937F9387
:100720008F939F93AF93BF93EF93FF930E948403A4
:10073000FF91EF91BF91AF919F918F917F916F91B9
:100740005F914F913F912F910F900FBE0F901F908F
:10075000189584E291E00E9471030895E82FF92F23
:10076000118280818E7F8083138212820895089582
:100770001F920F920FB60F9211242F933F934F9316
:100780005F936F937F938F939F93AF93BF93EF93F9
:10079000FF930E94B703FF91EF91BF91AF919F919B
:1007A0008F917F916F915F914F913F912F910F901A
:1007B0000FBE0F901F9018958DE291E00E94AE033E
:1007C0000895E82FF92F118280818E7F8083138214
:1007D0001282089508951F920F920FB60F9211245E
:1007E0002F933F934F935F936F937F938F939F9339
:1007F000AF93BF93EF93FF930E94EA03FF91EF91B2
:10080000BF91AF919F918F917F916F915F914F9128
:100810003F912F910F900FBE0F901F90189581E37D
:1008200091E00E94E1030895E82FF92F1182808161
:100830008E7F808313821282089508951F920F92F3
:100840000FB60F9211242F933F934F935F936F93A3
:100850007F938F939F93AF93BF93EF93FF930E94E8
:100860001D04FF91EF91BF91AF919F918F917F9167
:100870006F915F914F913F912F910F900FBE0F900D
:100880001F90189585E391E00E9414040895E82FC5
:10089000F92F118280818E7F8083138212820895C6
:1008A00008951F920F920FB60F9211242F933F932A
:1008B0004F935F936F937F938F939F93AF93BF9368
:1008C000EF93FF930E945004FF91EF91BF91AF917E
:1008D0009F918F917F916F915F914F913F912F9158
:1008E0000F900FBE0F901F90189589E391E00E9422
:1008F00047040895E82FF92F118280818E7F80832D
:1009000013821282089508951F920F920FB60F92CC
:1009100011242F933F934F935F936F937F938F9304
:100920009F93AF93BF93EF93FF930E948304FF9134
:10093000EF91BF91AF919F918F917F916F915F9157
:100940004F913F912F910F900FBE0F901F901895D0
:100950008DE391E00E947A040895E82FF92F118227
:10096000128280818E7F808314821382089508957D
:10097000089508951F920F920FB60F9211242F938E
:100980003F934F935F936F937F938F939F93AF9317
:10099000BF93EF93FF930E94B704FF91EF91BF9134
:1009A000AF919F918F917F916F915F914F913F9107
:1009B0002F910F900FBE0F901F9018951F920F92BE
:1009C0000FB60F9211242F933F934F935F936F9322
:1009D0007F938F939F93AF93BF93EF93FF930E9467
:1009E000B804FF91EF91BF91AF919F918F917F914B
:1009F0006F915F914F913F912F910F900FBE0F908C
:100A00001F9018951F920F920FB60F9211242F93DB
:100A10003F934F935F936F937F938F939F93AF9386
:100A2000BF93EF93FF930E94B904FF91EF91BF91A1
:100A3000AF919F918F917F916F915F914F913F9176
:100A40002F910F900FBE0F901F90189581E491E0A9
:100A50000E94AD040895E82FF92F1182128280813F
:100A60008E7F8083148213820895089508950895D7
:100A700008951F920F920FB60F9211242F933F9358
:100A80004F935F936F937F938F939F93AF93BF9396
:100A9000EF93FF930E943505FF91EF91BF91AF91C6
:100AA0009F918F917F916F915F914F913F912F9186
:100AB0000F900FBE0F901F9018951F920F920FB6B8
:100AC0000F9211242F933F934F935F936F937F93D4
:100AD0008F939F93AF93BF93EF93FF930E9436053D
:100AE000FF91EF91BF91AF919F918F917F916F9106
:100AF0005F914F913F912F910F900FBE0F901F90DC
:100B000018951F920F920FB60F9211242F933F93B7
:100B10004F935F936F937F938F939F93AF93BF9305
:100B2000EF93FF930E943705FF91EF91BF91AF9133
:100B30009F918F917F916F915F914F913F912F91F5
:100B40000F900FBE0F901F9018951F920F920FB627
:100B50000F9211242F933F934F935F936F937F9343
:100B60008F939F93AF93BF93EF93FF930E943805AA
:100B7000FF91EF91BF91AF919F918F917F916F9175
:100B80005F914F913F912F910F900FBE0F901F904B
:100B9000189586E491E00E942B050895E82FF92F1F
:100BA0001182128280818E7F808314821382089545
:100BB0000895089508951F920F920FB60F92112471
:100BC0002F933F934F935F936F937F938F939F9355
:100BD000AF93BF93EF93FF930E94D805FF91EF91DE
:100BE000BF91AF919F918F917F916F915F914F9145
:100BF0003F912F910F900FBE0F901F9018951F924D
:100C00000F920FB60F9211242F933F934F935F9340
:100C10006F937F938F939F93AF93BF93EF93FF93C4
:100C20000E94D905FF91EF91BF91AF919F918F9154
:100C30007F916F915F914F913F912F910F900FBED8
:100C40000F901F9018951F920F920FB60F921124BC
:100C50002F933F934F935F936F937F938F939F93C4
:100C6000AF93BF93EF93FF930E94DA05FF91EF914B
:100C7000BF91AF919F918F917F916F915F914F91B4
:100C80003F912F910F900FBE0F901F9018958BE4FE
:100C900091E00E94CE05089527E030E0FC01338307
:100CA000228380E0089527E030E0FC013383228333
:100CB00080E0089527E030E0FC013383228380E068
:100CC0000895E82FF92F862F8295880F807E9585CD
:100CD0009F71892B85876695669566958685807850
:100CE00073707295770F707E682B672B668786818D
:100CF00040FB80F98683848181608483108617821B
:100D000081E0089585E090E00895FC018781908559
:100D10000895E82FF92F8FE091E091838083128A64
:100D2000118A138614868585807E858784818D7FD0
:100D30008B7F848384E190E0908B87871086178275
:100D40000895CF92DF92EF92FF921F93CF93DF939C
:100D500000D000D000D0CDB7DEB78D839E83C42EE7
:100D6000D52EE62EF72E122FECEBF0E080818B7F54
:100D7000808310821092B9001092B8001092BA00CD
:100D80001092BD0088EEC81683E0D806E104F10495
:100D900008F490C0E1E8CE16EAE1DE06E6E0EE06F1
:100DA000F10408F09CC02A3008F49DC0253608F0F4
:100DB0009EC0ED81FE8181899289009711F00E9489
:100DC000E814812F90E061E070E002960E943614F2
:100DD000282F392FED81FE81328B218B232B09F4B3
:100DE0008AC01E5F912F969596959F718585807E0E
:100DF000892B858713861295110F110F107C14878C
:100E000080E891E00E946E0C69837A838B839C83D7
:100E1000A70196010E94D713205131092115F2E054
:100E20003F07A8F4369527952093B8008FEF80935D
:100E3000BB00ECEBF0E0808184608083ED81FE817B
:100E400084818260848320E030E081E036C02A3FE4
:100E500087E0380760F436952795369527953695BF
:100E60002795E9EBF0E0808181608083DDCF223E31
:100E7000EFE13E0770F436952795329522952F7055
:100E800023273F702327E9EBF0E080818260808395
:100E9000CBCF2238FFE73F0758F4220F232F221F22
:100EA000330B3195E9EBF0E0808183608083BCCF28
:100EB00020E0BACF23E330E080E0ED81FE8130878F
:100EC00027830F900F900F900F900F900F90DF914E
:100ED000CF911F91FF90EF90DF90CF90089522E384
:100EE00030E080E0EACF26E230E080E0E6CF25E2A5
:100EF00030E080E0E2CF2BE030E080E0DECFCF9248
:100F0000DF92EF92FF920F931F93CF93DF9300D066
:100F100000D0CDB7DEB7082F192FD8011F968D91BD
:100F20009C91CC24CA94DC2C7601892BB1F480E806
:100F300091E00E94860C69837A838B839C83C6161A
:100F4000D706E806F906E8F0ACEBB0E08C9180FD3E
:100F5000EECF20E030E081E017C080E891E00E9411
:100F6000860C69837A838B839C83F80187859089BB
:100F7000C980DA80EB80FC80C80ED91EE11CF11C10
:100F8000D6CF23E430E080E0F801308727830F904C
:100F90000F900F900F90DF91CF911F910F91FF90C5
:100FA000EF90DF90CF900895E82FF92F84818B7F09
:100FB000848388EF90E09287818785EA8093BC00E4
:100FC0001086178281E00895CF93DF93C82FD92F21
:100FD000E62FF72F8C8182FB882780F920E430E010
:100FE0008823B9F0442399F04E0F5F2F511DDF0184
:100FF00021E030E02E1B3F0BE989FA89EA0FFB1F45
:10100000E20FF31F90819D93A417B507A9F720E085
:1010100030E038872F83DF91CF910895AF92BF9250
:10102000CF92DF92EF92FF920F931F93CF93DF93B4
:10103000C82FD92FA62EF42EB22EC02ED12E1C8151
:1010400016951170112309F43EC0EE2021F0C11451
:10105000D10409F448C0CE010E947F07182F8823CD
:10106000B1F1F11046C0E989FA896A2D660F6083F3
:10107000E989FA89B182EE20A1F0A6014E0D511D39
:10108000F60122E030E02C193D09C9018E0F9F1FA7
:10109000A989BA89A80FB91F81918C93E417F50724
:1010A000A1F792E09E0D8B85E0FA87F98B879695E4
:1010B0009F738C85807C892B8C87CE010E94D407FE
:1010C00018861F8204C084E090E098878F83812F68
:1010D000DF91CF911F910F91FF90EF90DF90CF9014
:1010E000BF90AF90089581E190E098878F8310E0E2
:1010F000EECFE989FA898A2D880F8083E989FA89F8
:10110000B1828B858F778B878C85807C81608C8783
:10111000CE010E94D407CE010E947F07811102C038
:10112000182FD5CFE989FA896A2D660F616060832F
:101130009B8581E08E0D80FB97F99B8786958F7349
:101140009C85907C892B8C87CE010E94D407CE0190
:101150000E947F07811102C0182FB9CF4E2DB60112
:10116000CE010E94E4078111ABCF182FB0CFEF92D0
:101170000F931F93CF93DF93C82FD92F962F8C8176
:10118000817081110AC021E430E038872F83DF911C
:10119000CF911F910F91EF9008958D85829586953F
:1011A00087706E85660F660F660F682BE22E042F20
:1011B000152F292F41E0CE010E940E08882339F314
:1011C00018861F82E4CFEF920F931F93CF93DF9384
:1011D000C82FD92F962F8C81817081110AC021E4EC
:1011E00030E038872F83DF91CF911F910F91EF90DF
:1011F00008958D858295869587706E85660F660F3A
:10120000660F682BE22E042F152F292F40E0CE0108
:101210000E940E08882339F318861F82E4CFE82F36
:10122000F92F8091B9008C7F883309F46EC0A8F043
:10123000803509F458C08835C9F58091BB0090917C
:101240005001A189B289A90FB11D8C93848184605A
:10125000848384E98093BC000895883121F0F8F0FC
:10126000883209F056C0209150019385991F992723
:10127000991F84858F73880F892B281768F501883B
:10128000F289E02D81E0820F80935001E20FF11D81
:1012900080818093BB0085E88093BC0008958830EE
:1012A00011F08031B1F510925001DDCF803489F515
:1012B0002091500130E09385991F9927991F8485CB
:1012C0008F73880F892B8150990B28173907CCF41D
:1012D00085EC8093BC00089584818460848384E9D4
:1012E0008093BC0008959091BB00A189B289809140
:1012F000500121E0280F20935001A80FB11D9C93AD
:10130000D7CF85E88093BC00089585EA8093BC0020
:1013100008958091B900858384E08093BC0008958E
:101320001F920F920FB60F9211242F933F934F935A
:101330005F936F937F938F939F93AF93BF93EF933D
:10134000FF9381E591E00E940F09FF91EF91BF911A
:10135000AF919F918F917F916F915F914F913F914D
:101360002F910F900FBE0F901F90189581E591E07F
:101370000E94890608954F925F926F927F928F929A
:101380009F92AF92BF92CF92DF92EF92FF920F9314
:101390001F93CF93DF93CDB7DEB72A970FB6F8949C
:1013A000DEBF0FBECDBF89879A872091C000109104
:1013B000C1008091C2004091C4005091C500E985F0
:1013C000FA8593859923C1F09130C1F08F7CE9852E
:1013D000FA8592859130A1F09230A1F01B7F897F30
:1013E000E985FA859481933029F170F4913089F080
:1013F000923081F484600EC0877FE8CF8860E6CFAA
:101400008063ECCF8062EACF973021F4146086606D
:1014100001C08260217EB22EF82FFE73AF2EE985C7
:10142000FA850581083040F4E02FF0E0E857F94EE6
:101430000C94F9138660EECF01E021C06894B1F8F6
:1014400008E01DC06894A6F81AC0FA2DF164AF2E0A
:1014500002E015C08C73806CA82E02E010C08A2DAB
:10146000826CA82E02E00BC08C73816CA82E02E067
:1014700006C09A2D936CA92E02E001C000E180E81D
:1014800091E00E946E0C6D837E838F839887E9853F
:10149000FA852681378140855185A02FB0E00E94D2
:1014A0000E1469837A838B839C836D817E818F8107
:1014B000988529813A814B815C810E94D71369010B
:1014C0007A01F1E0CF1AD108E108F108B092C0002A
:1014D0001093C100A092C200260137012C2D352D9A
:1014E000462D572D60E070E080E090E008E00E941B
:1014F0001B142F702093C500C092C400E985FA85A3
:101500001382128281E02A960FB6F894DEBF0FBED6
:10151000CDBFDF91CF911F910F91FF90EF90DF90A2
:10152000CF90BF90AF909F908F907F906F905F9083
:101530004F900895E82FF92F842F952FA62FB72FBE
:101540002081277F2083803820E79207A105B105FD
:1015500009F480C008F047C0803C22E19207A10551
:10156000B10509F477C028F5883027E09207A10576
:10157000B10509F46FC058F0803629E09207A10543
:10158000B10509F467C020EB30E080E029C0883560
:1015900022E09207A105B10509F45CC0803B24E07C
:1015A0009207A105B10509F455C020EB30E080E0B9
:1015B00017C0803428E39207A105B10509F44AC099
:1015C00081152BE49207A105B10509F443C08038C9
:1015D00025E29207A105B105E9F120EB30E080E0BA
:1015E000338322830895811522EC920721E0A2071C
:1015F000B10581F1C8F0811524E8920723E0A20724
:10160000B10541F1811528EE920723E0A207B1054B
:1016100009F1811524EF920721E0A207B105D1F06D
:1016200020EB30E080E0DCCF803C2AED9207A10582
:10163000B10581F0811521EE9207A105B10551F0A8
:10164000811526E99207A105B10521F020EB30E0D4
:1016500080E0C6CF86839783A087B18720E030E003
:1016600081E0BECFA82FB92F8C91877F8C93EFEAB2
:10167000E60FEA3408F043C0F0E0E057F94E0C946E
:10168000F913862F83708130A9F0823009F03FC0B2
:1016900081E01B968C931B97862F86958695837089
:1016A000813051F0823041F0882331F02FEF3FEF4D
:1016B00080E028C080E0EDCF1A968C931A9762954F
:1016C0006F706730B1F060F06830B9F0693019F5CB
:1016D00087E014968C93149720E030E081E012C0EC
:1016E000653049F02FEF3FEF80E0663059F481E03C
:1016F000F0CF82E0EECF80E0ECCF83E0EACF23EBC7
:1017000030E080E013963C932E93129708952FEFCC
:101710003FEF80E0F7CF2FEF3FEF80E0F3CF0F9365
:101720001F93CF93DF93C82FD92F122FCE010E9482
:101730009A0A811105C0DF91CF911F910F910895F1
:101740008881877F8883183028F086EB90E09B8320
:101750008A83F1CF1D831B821A82602FCE010E94E3
:10176000320B882341F3E4E6F1E08FEC9BE09187B4
:1017700080871386128682E083831586148688818B
:10178000886088831B821A82D6CFE0ECF0E08081EB
:1017900085FFFDCF6093C60080E090E00895462F5E
:1017A000572F682F80917E0190917F010E94C50B79
:1017B0000895089508951F920F920FB60F92112465
:1017C0002F933F934F935F936F937F938F939F9349
:1017D000AF93BF93EF93FF930E94D90BFF91EF91CB
:1017E000BF91AF919F918F917F916F915F914F9139
:1017F0003F912F910F900FBE0F901F9018951F9241
:101800000F920FB60F9211242F933F934F935F9334
:101810006F937F938F939F93AF93BF93EF93FF93B8
:101820000E94DA0BFF91EF91BF91AF919F918F9141
:101830007F916F915F914F913F912F910F900FBECC
:101840000F901F9018951F920F920FB60F921124B0
:101850002F933F934F935F936F937F938F939F93B8
:10186000AF93BF93EF93FF930E94330DFF91EF91DE
:10187000BF91AF919F918F917F916F915F914F91A8
:101880003F912F910F900FBE0F901F9018950F93BF
:1018900001E820E040E855E260E070E082E791E096
:1018A0000E948F0B0F910895E82FF92F80E094E2AA
:1018B000A4EFB0E086839783A087B187808391836C
:1018C000A283B3831582148216861786108A118A22
:1018D00082898E7F828B148A138A0895CF93DF9337
:1018E00000D000D0CDB7DEB7FC012681378140851E
:1018F000518529833A834B835C83CA01B9010F90D8
:101900000F900F900F90DF91CF910895CF93DF93B9
:1019100000D000D0CDB7DEB7E82FF92F82859385B0
:10192000A485B58589839A83AB83BC83BC01CD0133
:101930000F900F900F900F90DF91CF91089580E856
:1019400091E00E94540C0895E82FF92F8091C00077
:101950008072811101C008958181A6E0B1E01196E5
:101960008C931197828112968C9312978381139690
:101970008C931397848114968C93149780818C9305
:10198000E1ECF0E0808188608083808180628083E8
:1019900081E0E1CFFC01648382E791E00E94BB0912
:1019A000E1ECF0E08081886080838FE190E09093AB
:1019B000C5008093C400808188608083559A5D9AB9
:1019C000549A5C9A5C98FFEF21EE84E0F15020403D
:1019D0008040E1F700C000005C9A9FEFE1EEF4E088
:1019E0009150E040F040E1F700C000000895E82F7A
:1019F000F92F848180698083942F990F490F440FB8
:101A0000440F645C460F842F822B882314F480E0FB
:101A1000089541832283838187608383CF010E945D
:101A2000A40C8FE99FE00197F1F700C0000081E06E
:101A3000089520E00E94F70C0895E82FF92F848183
:101A40008F70806C80836F77618383818E7F8A60E3
:101A50008383CF010E94A40C8FE99FE00197F1F7E7
:101A600000C0000008958091090182FD10C080919E
:101A7000090187708330A1F080910901877082305D
:101A8000C1F08091090187708130F9F00895E6E096
:101A9000F1E080818093C600838184508383089520
:101AA000E6E0F1E081818093C600838182508383E8
:101AB0000895E6E0F1E081818093C6001382E1ECB5
:101AC000F0E080818F7D80830895E6E0F1E08281FF
:101AD0008093C6001382E1ECF0E080818F7D8083EB
:101AE000D5CFCDB7DEB76C970FB6F894DEBF0FBE7B
:101AF000CDBFCE0101967C010E946A0080E8888FEC
:101B0000198E1A8E1B8E60E0CE0148960E94CA0C78
:101B1000789400E024E230E040E067E270E0C70142
:101B20000E947A011F928FE08F931F928EE08F9315
:101B30001F928DE08F931F928CE08F931F928BE00A
:101B40008F931F928AE08F931F9289E08F931F9249
:101B500088E08F931F9287E08F931F9286E08F9388
:101B60001F9285E08F931F9284E08F931F9283E0F2
:101B70008F931F9282E08F931F9281E08F931F9229
:101B80001F921F92FF92EF920E94EE010FB6F894FF
:101B9000DEBF0FBECDBF65E0C7010E94850024E116
:101BA00040E157E260E070E081E591E00E94A1062B
:101BB00040E068E670E081E591E00E94610621E086
:101BC00030E0AE014B5E5F4F6BE381E591E00E9438
:101BD000B70821E030E0AE014A5E5F4F6DE381E57A
:101BE00091E00E94B70821E030E0AE01495E5F4F0E
:101BF0006FE381E591E00E94B70810E06894BB2490
:101C0000B4F80F2EF3E1EF2EF02D0F2EFAE1CF2EC8
:101C1000F02D0F2EFEE2FF2EF02D0F2EFFE4DF2E13
:101C2000F02D34C0012F923324F49F3C1CF40C2D72
:101C300001C00E2D823324F48F3C1CF40D2D01C005
:101C40000F2DBE016C5E7F4FCE0101960E94910266
:101C5000EC89E031D8F4F0E0E652F94E0C94F91337
:101C600020E7412F612FCE0148960E94F70C9FEF8D
:101C700029E688E1915020408040E1F700C0000053
:101C8000412F612FCE0148960E94190D21E030E0CE
:101C9000AE014B5E5F4F6BE381E591E00E94B708B8
:101CA00021E030E0AE014A5E5F4F6DE381E591E0F7
:101CB0000E94B70821E030E0AE01495E5F4F6FE35C
:101CC00081E591E00E94B7088D899E892F89223392
:101CD0000CF0A8CF2F3C0CF0A6CF0B2DA4CF20E703
:101CE000412F61E0CE0148960E94F70C9FEF29E654
:101CF00088E1915020408040E1F700C00000412F72
:101D000061E0CE0148960E94190DC0CF20E7412F17
:101D100062E0CE0148960E94F70C9FEF29E688E129
:101D2000915020408040E1F700C00000412F62E068
:101D3000CE0148960E94190DA9CF20E7412F63E0FC
:101D4000CE0148960E94F70C9FEF29E688E191505A
:101D500020408040E1F700C00000412F63E0CE0149
:101D600048960E94190D92CF20E7412F64E0CE01E2
:101D700048960E94F70C9FEF29E688E19150204099
:101D80008040E1F700C00000412F64E0CE0148969A
:101D90000E94190D7BCF20E7412F65E0CE014896C8
:101DA0000E94F70C9FEF29E688E191502040804087
:101DB000E1F700C00000412F65E0CE0148960E9487
:101DC000190D64CF20E7412F66E0CE0148960E94AE
:101DD000F70C9FEF29E688E1915020408040E1F721
:101DE00000C00000412F66E0CE0148960E94190D08
:101DF0004DCF20E7412F67E0CE0148960E94F70CB7
:101E00009FEF29E688E1915020408040E1F700C033
:101E10000000412F67E0CE0148960E94190D36CF91
:101E200020E7412F68E0CE0148960E94F70C9FEF13
:101E300029E688E1915020408040E1F700C0000091
:101E4000412F68E0CE0148960E94190D1FCF20E770
:101E5000412F69E0CE0148960E94F70C9FEF29E6DA
:101E600088E1915020408040E1F700C00000412F00
:101E700069E0CE0148960E94190D08CF20E7412F56
:101E80006AE0CE0148960E94F70C9FEF29E688E1B0
:101E9000915020408040E1F700C00000412F6AE0EF
:101EA000CE0148960E94190DF1CE20E7412F6BE03C
:101EB000CE0148960E94F70C9FEF29E688E19150E9
:101EC00020408040E1F700C00000412F6BE0CE01D0
:101ED00048960E94190DDACE602FCE0148960E94D6
:101EE0001D0DD4CE20E7412F64E0CE0148960E941C
:101EF000F70C9FEF29E688E1915020408040E1F700
:101F000000C00000412F64E0CE0148960E94190DE8
:101F100020E7412F64E0CE0148960E94F70C9FEF26
:101F200029E688E1915020408040E1F700C00000A0
:101F3000412F64E0CE0148960E94190D20E7412F01
:101F400064E0CE0148960E94F70C9FEF23ED80E3FA
:101F5000915020408040E1F700C00000412F64E034
:101F6000CE0148960E94190D20E7412F64E0CE0172
:101F700048960E94F70C9FEF29E688E19150204097
:101F80008040E1F700C00000412F64E0CE01489698
:101F90000E94190D20E7412F64E0CE0148960E946F
:101FA000F70C9FEF29E688E1915020408040E1F74F
:101FB00000C00000412F64E0CE0148960E94190D38
:101FC00020E7412F64E0CE0148960E94F70C9FEF76
:101FD00023ED80E3915020408040E1F700C00000F5
:101FE000412F64E0CE0148960E94190D20E7412F51
:101FF00067E0CE0148960E94F70C9FEF29E688E142
:10200000915020408040E1F700C00000412F67E080
:10201000CE0148960E94190D20E7412F69E0CE01BC
:1020200048960E94F70C9FEF29E688E191502040E6
:102030008040E1F700C00000412F69E0CE014896E2
:102040000E94190D20E7412F69E0CE0148960E94B9
:10205000F70C9FEF23ED80E3915020408040E1F7A3
:1020600000C00000412F69E0CE0148960E94190D82
:1020700020E7412F69E0CE0148960E94F70C9FEFC0
:1020800029E688E1915020408040E1F700C000003F
:10209000412F69E0CE0148960E94190D20E7412F9B
:1020A00067E0CE0148960E94F70C9FEF29E688E191
:1020B000915020408040E1F700C00000412F67E0D0
:1020C000CE0148960E94190D20E7412F65E0CE0110
:1020D00048960E94F70C9FEF23ED80E3915020403B
:1020E0008040E1F700C00000412F65E0CE01489636
:1020F0000E94190DCBCD20E7412F612FCE014896CC
:102100000E94F70C9FEF2BE48DE19150204080401E
:10211000E1F700C00000412F612FCE0148960E94D8
:10212000190D20E7412F612FCE0148960E94F70C30
:102130009FEF2BE48DE1915020408040E1F700C0FB
:102140000000412F612FCE0148960E94190D20E713
:10215000412F67E0CE0148960E94F70C9FEF2BE4D9
:102160008DE1915020408040E1F700C00000412FF8
:1021700067E0CE0148960E94190D20E7412F67E0E5
:10218000CE0148960E94F70C9FEF2BE48DE1915011
:1021900020408040E1F700C00000412F67E0CE0101
:1021A00048960E94190D20E7412F69E0CE0148961C
:1021B0000E94F70C9FEF2BE48DE19150204080406E
:1021C000E1F700C00000412F69E0CE0148960E946F
:1021D000190D20E7412F69E0CE0148960E94F70CC7
:1021E0009FEF2BE48DE1915020408040E1F700C04B
:1021F0000000412F69E0CE0148960E94190D20E7AA
:10220000412F67E0CE0148960E94F70C9FEF2BE428
:102210008DE1915020408040E1F700C00000412F47
:1022200067E0CE0148960E94190D20E7412F65E036
:10223000CE0148960E94F70C9FEF2BE48DE1915060
:1022400020408040E1F700C00000412F65E0CE0152
:1022500048960E94190D20E7412F65E0CE0148966F
:102260000E94F70C9FEF2BE48DE1915020408040BD
:10227000E1F700C00000412F65E0CE0148960E94C2
:10228000190D20E7412F65E0CE0148960E94F70C1A
:102290009FEF2BE48DE1915020408040E1F700C09A
:1022A0000000412F65E0CE0148960E94190D20E7FD
:1022B000412F64E0CE0148960E94F70C9FEF2BE47B
:1022C0008DE1915020408040E1F700C00000412F97
:1022D00064E0CE0148960E94190D20E7412F64E08A
:1022E000CE0148960E94F70C9FEF2BE48DE19150B0
:1022F00020408040E1F700C00000412F64E0CE01A3
:1023000048960E94190D20E7412F62E0CE014896C1
:102310000E94F70C9FEF2BE48DE19150204080400C
:10232000E1F700C00000412F62E0CE0148960E9414
:10233000190D20E7412F612FCE0148960E94F70C1E
:102340009FEF27E98AE3915020408040E1F700C0E9
:102350000000412F612FCE0148960E94190D96CCA6
:1023600020E7412F69E0CE0148960E94F70C9FEFCD
:1023700029E688E1915020408040E1F700C000004C
:10238000412F69E0CE0148960E94190D20E7412FA8
:1023900067E0CE0148960E94F70C9FEF29E688E19E
:1023A000915020408040E1F700C00000412F67E0DD
:1023B000CE0148960E94190D20E7412F65E0CE011D
:1023C00048960E94F70C9FEF29E688E19150204043
:1023D0008040E1F700C00000412F65E0CE01489643
:1023E0000E94190D20E7412F64E0CE0148960E941B
:1023F000F70C9FEF29E688E1915020408040E1F7FB
:1024000000C00000412F64E0CE0148960E94190DE3
:1024100020E7412F62E0CE0148960E94F70C9FEF23
:1024200029E688E1915020408040E1F700C000009B
:10243000412F62E0CE0148960E94190D20E7412FFE
:10244000612FCE0148960E94F70C9FEF29E688E1A4
:10245000915020408040E1F700C00000412F612FE3
:10246000CE0148960E94190D20E7412F69E0CE0168
:1024700048960E94F70C9FEF29E688E19150204092
:102480008040E1F700C00000412F69E0CE0148968E
:102490000E94190D20E7412F67E0CE0148960E9467
:1024A000F70C9FEF29E688E1915020408040E1F74A
:1024B00000C00000412F67E0CE0148960E94190D30
:1024C00020E7412F65E0CE0148960E94F70C9FEF70
:1024D00029E688E1915020408040E1F700C00000EB
:1024E000412F65E0CE0148960E94190D20E7412F4B
:1024F00064E0CE0148960E94F70C9FEF29E688E140
:10250000915020408040E1F700C00000412F64E07E
:10251000CE0148960E94190D20E7412F62E0CE01BE
:1025200048960E94F70C9FEF29E688E191502040E1
:102530008040E1F700C00000412F62E0CE014896E4
:102540000E94190D20E7412F612FCE0148960E946D
:10255000F70C9FEF29E688E1915020408040E1F799
:1025600000C00000412F612FCE0148960E94190D36
:1025700020E7412F69E0CE0148960E94F70C9FEFBB
:1025800029E688E1915020408040E1F700C000003A
:10259000412F69E0CE0148960E94190D20E7412F96
:1025A00067E0CE0148960E94F70C9FEF29E688E18C
:1025B000915020408040E1F700C00000412F67E0CB
:1025C000CE0148960E94190D20E7412F65E0CE010B
:1025D00048960E94F70C9FEF29E688E19150204031
:1025E0008040E1F700C00000412F65E0CE01489631
:1025F0000E94190D20E7412F64E0CE0148960E9409
:10260000F70C9FEF29E688E1915020408040E1F7E8
:1026100000C00000412F64E0CE0148960E94190DD1
:1026200020E7412F62E0CE0148960E94F70C9FEF11
:1026300029E688E1915020408040E1F700C0000089
:10264000412F62E0CE0148960E94190D20E7412FEC
:10265000612FCE0148960E94F70C9FEF29E688E192
:10266000915020408040E1F700C00000412F612FD1
:10267000CE0148960E94190D20E7412F67E0CE0158
:1026800048960E94F70C9FEF29E688E19150204080
:102690008040E1F700C00000412F67E0CE0148967E
:1026A0000E94190D20E7412F69E0CE0148960E9453
:1026B000F70C9FEF29E688E1915020408040E1F738
:1026C00000C00000412F69E0CE0148960E94190D1C
:1026D00020E7412F67E0CE0148960E94F70C9FEF5C
:1026E00029E688E1915020408040E1F700C00000D9
:1026F000412F67E0CE0148960E94190D20E7412F37
:1027000065E0CE0148960E94F70C9FEF29E688E12C
:10271000915020408040E1F700C00000412F65E06B
:10272000CE0148960E94190D20E7412F64E0CE01AA
:1027300048960E94F70C9FEF29E688E191502040CF
:102740008040E1F700C00000412F64E0CE014896D0
:102750000E94190D20E7412F62E0CE0148960E94A9
:10276000F70C9FEF29E688E1915020408040E1F787
:1027700000C00000412F62E0CE0148960E94190D72
:1027800020E7412F612FCE0148960E94F70C9FEF62
:1027900023ED80E3915020408040E1F700C000002D
:1027A000412F612FCE0148960E94190D6FCAA1E2F8
:1027B0001A2EAA1BBB1BFD010DC0AA1FBB1FEE1FBB
:1027C000FF1FA217B307E407F50720F0A21BB30B06
:1027D000E40BF50B661F771F881F991F1A9469F782
:1027E00060957095809590959B01AC01BD01CF01DE
:1027F0000895EE0FFF1F0590F491E02D0994A29F1C
:10280000B001B39FC001A39F700D811D1124911DC4
:10281000B29F700D811D1124911D08950E94FF1318
:10282000A59F900DB49F900DA49F800D911D112424
:10283000089597FD1094002E083098F00850232F2B
:10284000342F452F562F672F782F892F912DF4CFB6
:1028500015949795879577956795579547953795EB
:1028600027950A95AAF71124002D08950F931F9319
:10287000CF93DF93869F8001879F100D969F100D49
:102880001124C8010E945214EC01009729F0A801FC
:1028900060E070E00E944816CE01DF91CF911F9159
:1028A0000F9108950F931F93CF93DF939C0102978D
:1028B00010F422E030E0E0912001F091210180E06D
:1028C00090E0A0E0B0E0309791F4009709F445C0A3
:1028D000821B930B84309105B8F58A819B81611529
:1028E000710569F1FB0193838283FE0111C0408170
:1028F00051810281138142175307F0F042175307A9
:1029000099F4109761F012960C93129713961C93FA
:102910003296CF01DF91CF911F910F9108950093CF
:10292000200110932101F4CF009719F0481759079F
:1029300018F4CA01BD01EF01DF01F801C4CF909383
:10294000210180932001D1CFFE01E80FF91F2193CF
:102950003193029799838883DCCF809122019091F3
:102960002301892B41F480910201909103019093FE
:102970002301809322018091000190910101009731
:1029800041F48DB79EB74091040150910501841B1D
:10299000950B40912201509123014817590708F0E7
:1029A000B8CF841B950B8217930708F4B2CFB901F7
:1029B0006E5F7F4F8617970708F4ABCF640F751FC4
:1029C0007093230160932201FA0121933193A1CFE7
:1029D000CF93DF939C010097D9F0FC0132971382CB
:1029E0001282A0912001B0912101109709F086C0B8
:1029F00080819181280F391F8091220190912301BC
:102A00008217930709F05FC0F0932301E09322013E
:102A1000DF91CF910895CE17DF0708F059C0AE01BE
:102A20000A80DB81C02D2097B1F7EA01FB83EA839E
:102A300029913991CE01820F931FE817F90761F4AC
:102A4000808191810296820F931FEA019983888386
:102A5000828193819B838A83E0E0F0E012968D91DE
:102A60009C911397009709F04EC0ED0189919991BF
:102A70008C0F9D1F209122013091230128173907C7
:102A800039F6309709F042C01092210110922001CE
:102A9000B0932301A0932201BBCFB383A283808193
:102AA0009181280F391FA217B30769F402962D915F
:102AB0003C911197820F931F9183808312968D9181
:102AC0009C9193838283F0932101E0932001A0CF16
:102AD000D383C28380819181280F391FC217D30706
:102AE00009F0A3CF029628813981820F931F918329
:102AF00080838A819B819383828397CFAE17BF07A0
:102B000060F6ED018CCFFD01DC01A8CF13821282AB
:102B1000BFCFA0E0B0E0EFE8F5E10C9451167C01E6
:102B2000CB01E114F10449F40E945214EC01CE01EE
:102B3000CDB7DEB7E0E10C946D16F701E60FF71F95
:102B4000D7011297C0E0D0E0EA17FB0780F30D91A0
:102B50001C91119706171707B0F00530110588F082
:102B60009801245031092617370758F0061B170B18
:102B700002501109019311936D937C93CF010E9430
:102B8000E814E701D4CF4B01801A910A5701A00E37
:102B9000B11EC0912001D0912101412C512C60E047
:102BA00070E0209731F520912201309123012A1500
:102BB0003B0509F056C04816590608F052C020914E
:102BC0000001309101012115310541F42DB73EB7C7
:102BD0004091040150910501241B350BE217F307C6
:102BE00008F0A5CFF0932301E09322018D939C93ED
:102BF000C8CF288139816A807B80CA15DB0551F5F1
:102C0000690142E0C40ED11CC814D90418F1A8010E
:102C1000481B590B420F531FEA012296259778F063
:102C200062827382518340838D939C9361157105F9
:102C300061F0DB011396FC93EE931297A2CFC801CB
:102C40000296820F931FF301EFCFF0932101E093DF
:102C5000200197CF4216530608F42901BE01E30173
:102C6000A0CF0E945214EC01009709F460CFA80194
:102C7000B7010E943F16C7010E94E81458CFFB011C
:102C8000DC0102C001900D9241505040D8F70895E8
:102C9000DC0101C06D9341505040E0F708952F9240
:102CA0003F924F925F926F927F928F929F92AF92DC
:102CB000BF92CF92DF92EF92FF920F931F93CF9329
:102CC000DF93CDB7DEB7CA1BDB0B0FB6F894DEBFC0
:102CD0000FBECDBF09942A88398848885F846E84E6
:102CE0007D848C849B84AA84B984C884DF80EE8030
:102CF000FD800C811B81AA81B981CE0FD11D0FB639
:102D0000F894DEBF0FBECDBFED010895F894FFCF5C
:102D10003E0A1E0A220A250A2A0A2F0A340A390AFA
:102D2000410B410B7F0B7F0B410B410B7F0B7F0B4B
:102D3000410B410B7F0B7F0B7F0B7F0B7F0B7F0BBF
:102D4000410B410B7F0B7F0B410B410B7F0B7F0B2B
:102D5000410B410B7F0B7F0B7F0B7F0B7F0B7F0B9F
:102D6000410B410B7F0B7F0B410B410B7F0B7F0B0B
:102D7000410B410B7F0B7F0B7F0B7F0B7F0B7F0B7F
:102D8000410B410B7F0B7F0B410B410B7F0B7F0BEB
:102D9000410B410B7F0B7F0B7F0B7F0B7F0B7F0B5F
:102DA000410B410B7F0B7F0B410B410B7F0B7F0BCB
:102DB000410B410B300E6F0E860E9D0EB40ECB0EE6
:102DC000E20EF90E100F270F3E0F550F6C0F720F0A
:042DD0007B10B011B3
:102DD400000095012000800000000000000000B702
:102DE400084C065306E30861065A06820685060067
:00000001FF
